:100000005BC0000069C0000067C0000065C0000060
:1000100063C0000061C000005FC000005DC0000060
:100020005BC0000059C0000057C0000055C0000070
:1000300053C0000051C000004FC000004DC0000080
:10004000F5C0000049C0000047C0000045C00000E6
:1000500043C0000041C000003FC000003DC00000A0
:100060003BC0000039C00000000000002400270051
:100070002A0000000000250028002B0004040404CE
:100080000404040402020202020203030303030342
:10009000010204081020408001020408102001021F
:1000A00004081020000000080002010000030407FB
:1000B000000000000000000011241FBECFEFD8E0B8
:1000C000DEBFCDBF21E0A0E0B1E001C01D92A930AC
:1000D000B207E1F7F5D069C193CF90E0FC01EC5590
:1000E000FF4F3491FC01E057FF4F2491FC01E4588D
:1000F000FF4FE491EE2309F43BC0332339F1333051
:1001000091F038F43130A9F0323001F584B58F7DAB
:1001100012C0373091F03830A1F03430B9F480910A
:1001200080008F7D03C0809180008F778093800056
:100130000DC084B58F7784BD09C08091B0008F77E2
:1001400003C08091B0008F7D8093B000F0E0EE0F8F
:10015000FF1FEE58FF4FA591B4918FB7F894EC9123
:10016000611103C020952E2301C02E2B2C938FBF2D
:1001700008953FB7F8948091050190910601A091F0
:100180000701B091080126B5A89B05C02F3F19F0C3
:100190000196A11DB11D3FBFBA2FA92F982F882707
:1001A000820F911DA11DB11DBC01CD0142E0660F62
:1001B000771F881F991F4A95D1F708958F929F92B4
:1001C000AF92BF92CF92DF92EF92FF926B017C01D0
:1001D000D0DF4B015C01C114D104E104F104E9F06A
:1001E000C8DFDC01CB0188199909AA09BB09883E3F
:1001F0009340A105B10578F321E0C21AD108E108C6
:10020000F10888EE880E83E0981EA11CB11CC11471
:10021000D104E104F10421F7DECFFF90EF90DF90ED
:10022000CF90BF90AF909F908F9008951F920F92A4
:100230000FB60F9211242F933F938F939F93AF93F9
:10024000BF938091010190910201A0910301B091AF
:1002500004013091000123E0230F2D3720F4019693
:10026000A11DB11D05C026E8230F0296A11DB11DD9
:10027000209300018093010190930201A093030158
:10028000B09304018091050190910601A0910701AE
:10029000B09108010196A11DB11D809305019093B5
:1002A0000601A0930701B0930801BF91AF919F9100
:1002B0008F913F912F910F900FBE0F901F90189527
:1002C000789484B5826084BD84B5816084BD85B531
:1002D000826085BD85B5816085BD80916E0081603D
:1002E00080936E00109281008091810082608093E3
:1002F00081008091810081608093810080918000E5
:100300008160809380008091B10084608093B1000F
:100310008091B00081608093B00080917A00846009
:1003200080937A0080917A00826080937A00809135
:100330007A00816080937A0080917A00806880934F
:100340007A001092C100E9E9F0E02491E5E8F0E0DC
:100350008491882399F090E0880F991FFC01E85957
:10036000FF4FA591B491FC01EE58FF4F85919491F8
:100370008FB7F894EC91E22BEC938FBFC0E0D0E004
:1003800061E089E0AADE64E670E080E090E016DFDC
:1003900060E089E0A2DE68EE73E080E090E00EDFCE
:0E03A000209771F30E940000EBCFF894FFCF7E
:00000001FF
